:100000001EC02EC055C02BC02AC029C028C027C082
:1000100026C025C024C023C022C021C020C01FC0CC
:100020001EC01DC01CC01BC01AC09DC09EC09FC06A
:10003000A0C0A1C0A2C0A3C0A4C0A5C0A6C01124D6
:100040001FBECFE5D1E0DEBFCDBF20E0A0E6B0E02F
:1000500001C01D92A836B207E1F750D0E8C0D0CF5A
:100060001F920F920FB60F9211242F933F938F93ED
:100070009F9380916200811112C081E080936200A1
:1000800027E834E892E0215030409040E1F700C08A
:1000900000001092670010926600809364009F91A8
:1000A0008F913F912F910F900FBE0F901F90189539
:1000B0001F920F920FB60F9211242F933F938F939D
:1000C0009F9380916200811110C081E08093620053
:1000D00027E834E892E0215030409040E1F700C03A
:1000E000000010926500809363009F918F913F9173
:1000F0002F910F900FBE0F901F9018959FEF97BBF9
:1001000011BA82B38C6082BB9ABB81B3836081BB1E
:100110008BB7806C8BBF85B78A6085BF78943FE6CC
:100120004FE757E06DE77DE6C6E6DFE41BE506E056
:100130002FE3FF24F3949091620080916100892B5A
:10014000D1F3E091650080916700909166008E2B5D
:10015000E82FE92B8E2F90E08A309105B8F4FC014E
:10016000EB5EFF4F099428BB11C008BB0FC018BB42
:100170000DC0D8BB0BC0C8BB09C078BB07C068BBEB
:1001800005C058BB03C048BB01C038BB80916400A8
:10019000882351F180916700853068F48091600078
:1001A000811109C0809167008F5F80936700D89AA2
:1001B0001092600032C0F092600010926700D898F0
:1001C00080916600863058F480916000813039F467
:1001D000809166008F5F80936600D99A1EC028BB0D
:1001E000D9981092670019C0809163008823A1F00C
:1001F00080916500873040F4809165008F5F809327
:100200006500D99A919A09C028BB10926500D998C7
:1002100091981092620001C028BB8FE99AE5E2E351
:1002200081509040E040E1F700C0000084CFF89496
:02023000FFCFFE
:00000001FF
