:100000001EC02EC053C02BC02AC029C028C027C084
:1000100026C025C024C023C022C021C020C01FC0CC
:100020001EC01DC01CC01BC01AC08FC090C091C094
:1000300092C093C094C095C096C097C098C0112438
:100040001FBECFE5D1E0DEBFCDBF20E0A0E6B0E02F
:1000500001C01D92A536B207E1F74ED0B6C0D0CF91
:100060001F920F920FB60F9211242F933F938F93ED
:100070009F9380916000811110C081E080936000A7
:1000800027E834E892E0215030409040E1F700C08A
:10009000000010926400809362009F918F913F91C5
:1000A0002F910F900FBE0F901F9018951F920F92D7
:1000B0000FB60F9211242F933F938F939F938091AC
:1000C0006000811110C081E08093600027E834E86F
:1000D00092E0215030409040E1F700C000001092C3
:1000E0006300809361009F918F913F912F910F90BA
:1000F0000FBE0F901F9018958FEF87BB11BA82B378
:100100008C6082BB8BB7806C8BBF85B78A6085BFE4
:1001100078942FE63FE747E05DE76DE676E6CFE4CB
:10012000DBE516E00FE3809160008823E1F3E091C6
:10013000640080916300E82B8E2F90E08A30910557
:10014000C8F4FC01EB5EFF4F099408BB13C018BB59
:1001500011C0D8BB0FC0C8BB0DC078BB0BC068BBFB
:1001600009C058BB07C048BB05C038BB03C028BB8B
:100170001092600080916200882361F08091640099
:100180008A3030F4809164008F5F8093640013C0E4
:1001900018BA11C080916100882369F080916300D2
:1001A000873030F4809163008F5F8093630001C0DB
:1001B00018BA809160008FE99AE5E2E3815090409F
:0E01C000E040E1F700C00000AECFF894FFCFA2
:00000001FF
