:100000001EC02EC053C02BC02AC029C028C027C084
:1000100026C025C024C023C022C021C020C01FC0CC
:100020001EC01DC01CC01BC01AC08FC090C091C094
:1000300092C093C094C095C096C097C098C0112438
:100040001FBECFE5D1E0DEBFCDBF20E0A0E6B0E02F
:1000500001C01D92A536B207E1F74ED0BAC0D0CF8D
:100060001F920F920FB60F9211242F933F938F93ED
:100070009F9380916000811110C081E080936000A7
:1000800027E834E892E0215030409040E1F700C08A
:10009000000010926400809362009F918F913F91C5
:1000A0002F910F900FBE0F901F9018951F920F92D7
:1000B0000FB60F9211242F933F938F939F938091AC
:1000C0006000811110C081E08093600027E834E86F
:1000D00092E0215030409040E1F700C000001092C3
:1000E0006300809361009F918F913F912F910F90BA
:1000F0000FBE0F901F9018958FEF87BB11BA82B378
:100100008C6082BB8BB7806C8BBF85B78A6085BFE4
:1001100078943FE64FE757E06DE77DE6C6E6DFE41B
:100120001BE506E02FE3809160008823E1F3E09176
:10013000630080916400E82B8E2F90E08A30910557
:10014000B8F4FC01EB5EFF4F099428BB11C008BB5B
:100150000FC018BB0DC0D8BB0BC0C8BB09C078BB53
:1001600007C068BB05C058BB03C048BB01C038BB53
:1001700080916200882371F080916400883030F4AF
:10018000809164008F5F8093640019C028BB109237
:10019000640011C080916100882381F08091630028
:1001A000873030F4809163008F5F8093630007C0D5
:1001B00028BB109263001092600001C028BB8FE939
:1001C0009AE5E2E381509040E040E1F700C0000092
:0601D000AACFF894FFCF56
:00000001FF
